:100000000C942A000C943C000C943C000C943C0092
:100010000C943C000C943C000C943C000C943C0070
:100020000C943C000C943C000C943C000C943C0060
:100030000C943C000C943C000C943C000C943C0050
:100040000C943C000C943C000C943C000C943C0040
:100050000C943C0011241FBECFE5D4E0DEBFCDBF21
:1000600010E0A0E6B0E001C01D92A236B107E1F7B2
:100070000E94CC020C94A8030C940000EF92FF9213
:100080001F93CF93DF93EC010E94790380EA0E94D3
:100090007F0380E00E947F030E94790381EA0E942F
:1000A0007F030E948603182F0E948D0340E2E42EF6
:1000B0004EE4F42EC7010197F1F78881181709F073
:1000C00047C00E94790380EA0E947F0381E00E947A
:1000D0007F030E94790381EA0E947F030E948603C6
:1000E000182F0E948D03C7010197F1F78981181716
:1000F00079F50E94790380EA0E947F0382E00E94E2
:100100007F030E94790381EA0E947F030E94860395
:10011000182F0E948D03C7010197F1F78A811817E4
:10012000B9F40E94790380EA0E947F0383E00E9471
:100130007F030E94790381EA0E947F030E94860365
:10014000182F0E948D038B81181711F48BE091C139
:100150000E94790380EA0E947F0384E00E947F036B
:100160000E94790381EA0E947F030E948603182F70
:100170000E948D0330E2E32E3EE4F32EC701019787
:10018000F1F78881181709F047C00E94790380EAC7
:100190000E947F0385E00E947F030E94790381EA29
:1001A0000E947F030E948603182F0E948D03C701BF
:1001B0000197F1F78981181779F50E94790380EA90
:1001C0000E947F0386E00E947F030E94790381EAF8
:1001D0000E947F030E948603182F0E948D03C7018F
:1001E0000197F1F78A811817B9F40E94790380EA20
:1001F0000E947F0387E00E947F030E94790381EAC7
:100200000E947F030E948603182F0E948D038B811A
:10021000181711F48CE02DC10E94790380EA0E9426
:100220007F0388E00E947F030E94790381EA0E9495
:100230007F030E948603182F0E948D0320E2E22E86
:100240002EE4F22EC7010197F1F78881181709F003
:1002500047C00E94790380EA0E947F0389E00E94E0
:100260007F030E94790381EA0E947F030E94860334
:10027000182F0E948D03C7010197F1F78981181784
:1002800079F50E94790380EA0E947F038AE00E9448
:100290007F030E94790381EA0E947F030E94860304
:1002A000182F0E948D03C7010197F1F78A81181753
:1002B000B9F40E94790380EA0E947F038BE00E94D8
:1002C0007F030E94790381EA0E947F030E948603D4
:1002D000182F0E948D038B81181711F48DE0C9C06F
:1002E0000E94790380EA0E947F038CE00E947F03D2
:1002F0000E94790381EA0E947F030E948603182FDF
:100300000E948D0390E2E92E9EE4F92EC701019729
:10031000F1F78881181709F047C00E94790380EA35
:100320000E947F038DE00E947F030E94790381EA8F
:100330000E947F030E948603182F0E948D03C7012D
:100340000197F1F78981181779F50E94790380EAFE
:100350000E947F038EE00E947F030E94790381EA5E
:100360000E947F030E948603182F0E948D03C701FD
:100370000197F1F78A811817B9F40E94790380EA8E
:100380000E947F038FE00E947F030E94790381EA2D
:100390000E947F030E948603182F0E948D038B8189
:1003A000181711F48EE065C00E94790380EA0E945C
:1003B0007F0380E10E947F030E94790381EA0E940B
:1003C0007F030E948603182F0E948D0380E2E82E8F
:1003D0008EE4F82EC7010197F1F78881181709F00C
:1003E00047C00E94790380EA0E947F0381E10E9456
:1003F0007F030E94790381EA0E947F030E948603A3
:10040000182F0E948D03C7010197F1F789811817F2
:1004100079F50E94790380EA0E947F0382E10E94BD
:100420007F030E94790381EA0E947F030E94860372
:10043000182F0E948D03C7010197F1F78A811817C1
:10044000B9F40E94790380EA0E947F0383E10E944D
:100450007F030E94790381EA0E947F030E94860342
:10046000182F0E948D038B81181711F480E101C0B1
:100470008FE0DF91CF911F91FF90EF90089540E0C2
:1004800050E0E0E1F0E060E177E2342F8BB3806F81
:100490008BBB2BB3CF01042E02C0880F991F0A9487
:1004A000E2F7809582238BBBCB010197F1F799B3DB
:1004B0009F709F3029F089B38F708F30E1F706C0AD
:1004C0003F5F4F5F5F4F44305105F9F63130F9F02F
:1004D000313030F0323099F1333009F05AC042C037
:1004E0009B3079F09C3020F4973009F052C00DC059
:1004F0009D3029F09E3009F04CC087E045C084E073
:1005000043C081E08093600042C080E13DC09B30E9
:1005100079F09C3018F49730E1F50CC09D3021F053
:100520009E30B9F588E001C085E08093600004C08A
:1005300082E0FBCF10926000309361002AC09B30B4
:1005400069F09C3018F4973021F50AC09D3021F0F5
:100550009E30F9F489E018C086E016C083E014C02C
:100560008DE012C09B3069F09C3018F4973089F40C
:100570000AC09D3021F09E3061F48FEF05C08AEFF4
:1005800003C08DEF01C08BEF8093600081E080930A
:100590006100809160000895CF92DF92FF920F93E7
:1005A0001F93DF93CF9300D000D0CDB7DEB70E946A
:1005B00059030E94790380EA0E947F0380E00E9431
:1005C0007F0381E00E947F0381E00E947F0381E03E
:1005D0000E947F0381E00E947F0382E00E947F03EC
:1005E00082E00E947F0382E00E947F0382E00E94FB
:1005F0007F0382E00E947F0383E00E947F0385E007
:100600000E947F0385E00E947F0384E00E947F03B5
:1006100084E00E947F0384E00E947F0384E00E94C4
:100620007F030E948D0300E21EE4C8010197F1F7E9
:100630000E94790380EA0E947F0380E10E947F0389
:1006400085E00E947F0385E00E947F0385E00E9491
:100650007F0385E00E947F030E948D03C8010197FC
:10066000F1F700E010E06E010894C11CD11C02C03B
:1006700000E010E00E943F02F82E8091610081307E
:10068000C9F78F2D805D0E9475031092610080E193
:10069000F81671F3F601E00FF11FF0820F5F1F4FA4
:1006A0000430110539F7C6010E943E000E9475030F
:1006B000E1CF80EF8ABB8FEF8BBB89BB8FEB87BB12
:1006C00018BA8CE58DB91EB882E28BB98FE88AB969
:1006D00086E880BD8CE089B910BC84E082B983E0F3
:1006E00080B984E486BF11B808958FB9779BFECF97
:1006F000089584EA86BF06B607FEFDCF089583B944
:1007000084E886BF06B607FEFDCF089584E886BF5D
:1007100006B607FEFDCF83B1089584E986BF08952C
:1007200084EC86BF06B607FEFDCF08955D9BFECF25
:100730008CB908955F9BFECF8CB10895FC0104C075
:100740005D9BFECF31968CB980818823C9F70895CF
:04075000F894FFCF4B
:00000001FF
